:100000000C9462000C948A000C948A000C948A0070
:100010000C948A000C948A000C948A000C948A0038
:100020000C948A000C948A000C948A000C945D0550
:100030000C948A000C948A000C948A000C948A0018
:100040000C9413050C948A000C94E1040C94BB04EA
:100050000C948A000C948A000C948A000C948A00F8
:100060000C948A000C948A000000000023002600F3
:10007000290000000000240027002A0000000000E2
:10008000250028002B0004040404040404040202D4
:100090000202020203030303030301020408102007
:1000A0004080010204081020010204081020000012
:1000B0000008000201000003040700000000000027
:1000C00000001E0611241FBECFEFD8E0DEBFCDBF5B
:1000D00011E0A0E0B1E0EEE9FDE102C005900D9273
:1000E000A835B107D9F722E0A8E5B1E001C01D921B
:1000F000A63EB207E1F710E0C2E6D0E004C02197C7
:10010000FE010E94C20EC136D107C9F70E94F50652
:100110000C94CD0E0C940000CF92DF92EF92FF92E0
:10012000DC01A03282E0B8070CF03EC0B7FD06C08B
:10013000A53BB1052CF0A4EBB0E002C0A0E0B0E01C
:100140008091E40228E830E06901C81AD10887FDEF
:10015000D394CC0CDD1CCC0CDD1C0D2C000CEE085B
:10016000FF088091E50228E532E0281B310987FD70
:100170003395220F331F220F331FA901330F660B54
:10018000770B9A01AB012C193D094E095F090E94BA
:10019000410C24EB30E040E050E00E94170CC20E0E
:1001A000D31EE41EF51ED6019091E3029C3098F513
:1001B0008091E40248E850E0481B510987FD5395BF
:1001C000440F551F440F551FA417B5078CF080919D
:1001D000E50228E532E0281B310987FD3395220F1F
:1001E000331F220F331FAD012A173B070CF4A9015F
:1001F00042505109440F551F2FB7F894892F90E0B2
:10020000FC01EE0FFF1F8E0F9F1FFC01E15DFD4FF4
:10021000528341832FBFFF90EF90DF90CF900895DE
:10022000CF92DF92EF92FF920F931F93CF93DF93C2
:100230006C017A018B01C0E0D0E0CE15DF0589F0BA
:10024000D8016D918D01D601ED91FC910190F08165
:10025000E02DC6010995892B11F47E0102C021967B
:10026000ECCFC701DF91CF911F910F91FF90EF90DD
:10027000DF90CF900895FC01538D448D252F30E001
:10028000842F90E0821B930B541710F0CF960895A3
:1002900001970895FC01918D828D981761F0828DF0
:1002A000DF01A80FB11D5D968C91928D9F5F9F73AA
:1002B000928F90E008958FEF9FEF0895FC01918D4C
:1002C000828D981731F0828DE80FF11D858D90E0B9
:1002D00008958FEF9FEF0895FC01918D228D892F56
:1002E00090E0805C9F4F821B91098F73992708953E
:1002F00082E991E00E946C0121E0892B09F420E061
:10030000822F0895FC01848DDF01A80FB11DA35A2F
:10031000BF4F2C91848D90E001968F739927848F25
:10032000A689B7892C93A089B1898C9180648C931C
:10033000938D848D981306C00288F389E02D808107
:100340008F7D80830895EF92FF920F931F93CF9339
:10035000DF93EC0181E0888F9B8D8C8D981305C015
:10036000E889F989808185FD24C0F62E0B8D10E087
:100370000F5F1F4F0F731127E02E8C8DE8120CC0FA
:100380000FB607FCFACFE889F989808185FFF5CFA0
:10039000CE010E948201F1CF8B8DFE01E80FF11D8D
:1003A000E35AFF4FF0820B8FEA89FB8980818062DC
:1003B00007C0EE89FF896083E889F98980818064BC
:1003C000808381E090E0DF91CF911F910F91FF90AA
:1003D000EF900895CF93DF93EC01888D8823C9F0C7
:1003E000EA89FB89808185FD05C0A889B9898C913E
:1003F00086FD0FC00FB607FCF5CF808185FFF2CFD9
:10040000A889B9898C9185FFEDCFCE010E94820128
:10041000E7CFDF91CF91089580E090E0892B29F01C
:100420000E94780181110C9400000895833081F0BE
:1004300028F4813099F08230A1F008958730A9F036
:100440008830B9F08430D1F4809180008F7D03C072
:10045000809180008F7780938000089584B58F7796
:1004600002C084B58F7D84BD08958091B0008F77E0
:1004700003C08091B0008F7D8093B00008951F93DA
:10048000CF93DF93282F30E0F901E255FF4F84919D
:10049000F901E656FF4FD491F901EA57FF4FC49195
:1004A000CC23C9F0162F81110E941602EC2FF0E028
:1004B000EE0FFF1FE458FF4FA591B4918FB7F8944A
:1004C000111105C09C91ED2FE095E92302C0EC913C
:1004D000ED2BEC938FBFDF91CF911F910895CF93B8
:1004E000DF9390E0FC01E656FF4F2491FC01EA57B0
:1004F000FF4F8491882361F190E0880F991FFC01E0
:10050000EE58FF4FC591D491FC01E458FF4FA591DF
:10051000B491611109C09FB7F89488812095822316
:100520008883EC912E230BC0623061F49FB7F8945E
:100530003881822F809583238883EC912E2B2C93F6
:100540009FBF06C08FB7F894E8812E2B28838FBFFA
:10055000DF91CF910895CF93DF93EC0160E08E811E
:100560000E943F0261E08E810E943F0260E08E8126
:100570000E943F028BE891E00197F1F7DF91CF9164
:100580000895CF92DF92EF92FF920F931F93CF9334
:10059000DF937C016C0187E0C80ED11CC0E0D0E085
:1005A000062F10E0B8010C2E02C0759567950A94CD
:1005B000E2F76170F60181916F010E943F0221967E
:1005C000C430D10579F7C701DF91CF911F910F9109
:1005D000FF90EF90DF90CF900C94AB02CF92DF9220
:1005E000EF92FF920F931F93CF93DF93EC01F62EC0
:1005F000642F8C810E943F028D818F3F19F060E053
:100600000E943F028F850F2D10E084FF25C06E01F0
:1006100087E0C80ED11CE12CF12CB8010E2C02C0D1
:10062000759567950A94E2F76170F60181916F0103
:100630000E943F02FFEFEF1AFF0A88E0E816F1047C
:1006400061F7CE01DF91CF911F910F91FF90EF9055
:10065000DF90CF900C94AB02B80184E0759567955C
:100660008A95E1F7CE010E94C1026F2DCE01DF9184
:10067000CF911F910F91FF90EF90DF90CF900C944E
:10068000C10241E00E94EE0281E090E0089540E066
:100690000C94EE02EF92FF920F931F93CF93DF9390
:1006A000EC01623018F08F8588608F876B8B1C8A15
:1006B00080E48D8B80E18E8B80E58F8B61E08C8177
:1006C0000E946F028D818F3F19F061E00E946F02DE
:1006D00061E08E810E946F027E0187E0E80EF11CCE
:1006E00000E010E08F8584FD03C084E090E002C04C
:1006F00088E090E0081719074CF461E0F701819158
:100700007F010E946F020F5F1F4FECCF8BE39DE0D4
:100710000197F1F760E08C810E943F0260E08E81DA
:100720000E943F028D818F3F19F060E00E943F02DE
:100730006F8564FD1DC063E0CE010E94C1020BE421
:1007400016E4C8010197F1F763E0CE010E94C102EF
:10075000C8010197F1F763E0CE010E94C10283E571
:1007600092E00197F1F762E0CE010E94C10216C04B
:100770006062CE010E9447038BE496E40197F1F793
:100780006F856062CE010E94470383E592E0019786
:10079000F1F76F856062CE010E9447036F8560624A
:1007A000CE010E94470384E0888B6CE0CE010E945A
:1007B000470361E0CE010E9447038BE39FE101976D
:1007C000F1F782E0898B66E0CE01DF91CF911F9136
:1007D0000F91FF90EF900C944703089580E090E014
:1007E0000895CF93DF9370E0FB01E255FF4F8491B2
:1007F000FB01E656FF4FD491FB01EA57FF4FC4912E
:10080000CC2391F081110E941602EC2FF0E0EE0F44
:10081000FF1FE859FF4FA591B491EC91ED2381E0C2
:1008200090E021F480E002C080E090E0DF91CF9181
:100830000895862F642F0C943F02862F642F0C940A
:100840006F0260E082E00E943F0260E083E00E946D
:100850003F0260E084E00E943F0260E085E00C948B
:100860003F0261E082E00E943F0260E083E00E947C
:100870003F0260E084E00E943F0261E085E00C946A
:100880003F0260E082E00E943F0261E083E00E945C
:100890003F0261E084E00E943F0260E085E00C944A
:1008A0003F0261E082E00E943F0260E083E00E943C
:1008B0003F0261E084E00E943F0260E085E00C942A
:1008C0003F020E94C80E6115710579F0FB0101908D
:1008D0000020E9F73197AF01461B570BDC01ED9182
:1008E000FC910280F381E02D099480E090E008956E
:1008F0008F929F92AF92BF920F931F93CF93DF93EC
:10090000CDB7DEB7A1970FB6F894DEBF0FBECDBF4F
:1009100019A2423008F44AE08E010F5D1F4F842E69
:10092000912CA12CB12CA50194010E94490CE62F19
:10093000B901CA0101501109EA3014F4E05D01C0A7
:10094000E95CD801EC93232B242B252B61F7B8010C
:1009500082E991E00E946304A1960FB6F894DEBF8D
:100960000FBECDBFDF91CF911F910F91BF90AF9080
:100970009F908F9008951F920F920FB60F9211249F
:100980002F933F934F935F936F937F938F939F9397
:10099000AF93BF93EF93FF9382E991E00E948201AE
:1009A000FF91EF91BF91AF919F918F917F916F9147
:1009B0005F914F913F912F910F900FBE0F901F901D
:1009C00018951F920F920FB60F9211242F938F93A9
:1009D0009F93EF93FF93E091A201F091A301808197
:1009E000E091A801F091A90182FD12C0908180914F
:1009F000AB018F5F8F732091AC01821751F0E091B2
:100A0000AB01F0E0EE56FE4F958F8093AB0101C035
:100A10008081FF91EF919F918F912F910F900FBE49
:100A20000F901F9018951F920F920FB60F921124DE
:100A30002F933F938F939F93AF93BF9380915E01CA
:100A400090915F01A0916001B091610130915D01D1
:100A500023E0230F2D3720F40196A11DB11D05C001
:100A600026E8230F0296A11DB11D20935D018093FE
:100A70005E0190935F01A0936001B093610180914A
:100A8000590190915A01A0915B01B0915C010196CE
:100A9000A11DB11D8093590190935A01A0935B0150
:100AA000B0935C01BF91AF919F918F913F912F9136
:100AB0000F900FBE0F901F9018951F920F920FB6B8
:100AC0000F9211242F933F934F935F936F937F93D4
:100AD0008F939F93AF93BF93EF93FF9380915801B0
:100AE00087FF05C010928500109284001BC02091E2
:100AF0005801022E000C330B8091530290E028170E
:100B0000390784F480915801082E000C990BFC01E0
:100B1000EE0FFF1F8E0F9F1FFC01E15DFD4F8081D7
:100B200086FD15C0809158018F5F809358012091F8
:100B30005801022E000C330B8091530290E02817CD
:100B40003907C4F4809158018C3064F113C080914E
:100B50005801082E000C990BFC01EE0FFF1F8E0FA1
:100B60009F1FFC01E15DFD4F808160E08F730E945B
:100B70003F02D8CF80918400909185000496803404
:100B80009C4918F480E49CE905C080918400909110
:100B90008500049690938900809388008FEF80935E
:100BA00058013BC02091840030918500809158010C
:100BB000082E000C990BFC01EE0FFF1F8E0F9F1FDC
:100BC000FC01E15DFD4F81819281820F931F909323
:100BD00089008093880080915801082E000C990BA1
:100BE000FC01EE0FFF1F8E0F9F1FFC01E15DFD4F0B
:100BF000808186FF12C080915801082E000C990B4D
:100C0000FC01EE0FFF1F8E0F9F1FFC01E15DFD4FEA
:100C1000808161E08F730E943F02FF91EF91BF914D
:100C2000AF919F918F917F916F915F914F913F9184
:100C30002F910F900FBE0F901F9018951092950155
:100C40001092940188EE93E0A0E0B0E080939601CA
:100C500090939701A0939801B093990184E191E05A
:100C6000909393018093920185EC90E090939F0183
:100C700080939E0184EC90E09093A1018093A00169
:100C800080EC90E09093A3018093A20181EC90E02E
:100C90009093A5018093A40182EC90E09093A7012A
:100CA0008093A60186EC90E09093A9018093A8011F
:100CB0001092AB011092AC011092AD011092AE01F6
:100CC000809153028C30A0F491E0980F90935302DE
:100CD0008093E30290E0FC01EE0FFF1F8E0F9F1F39
:100CE000FC01E15DFD4F88EB9BE09283818303C0B3
:100CF0008FEF8093E3021092760210927A021092A4
:100D0000790210927B0282E391E0909375028093C6
:100D1000740280E090E0FC01EC58FD4F148E10A2AC
:100D2000178E11A206968C339105A9F780E792E001
:100D30009093D7028093D6028CE692E09093D902EA
:100D40008093D80284E08093DA028093DB0280E013
:100D500091E09093D5028093D4028AE090E0909342
:100D6000DD028093DC0284EF91E09093DF028093B8
:100D7000DE021092E2021092E1021092D002109272
:100D8000D1021092D2021092D3021092E00210927D
:100D900057021092560286E291E09093550280939A
:100DA00054028EE0809358028FEF809359028FE0B7
:100DB00080935A0280E180935B0281E180935C0220
:100DC00082E180935D0283E180935E0210925F0274
:100DD00010926002109261021092620210926302FD
:100DE00061E084E592E00C944A03CF93DF93CDB7A2
:100DF000DEB72C970FB6F894DEBF0FBECDBF789448
:100E000084B5826084BD84B5816084BD85B582600F
:100E100085BD85B5816085BD80916E0081608093C0
:100E20006E00109281008091810082608093810029
:100E30008091810081608093810080918000816039
:100E4000809380008091B10084608093B100809194
:100E5000B00081608093B00080917A0084608093BC
:100E60007A0080917A00826080937A0080917A0083
:100E7000816080937A0080917A00806880937A0004
:100E80001092C10062E084E592E00E944A0361E0B2
:100E900084E592E00E9447038BE39FE10197F1F71D
:100EA00068E371E084E592E00E946304E091A201AE
:100EB000F091A30182E08083E0919E01F0919F0177
:100EC0001082E091A001F091A1018FEC808310923B
:100ED000AA01E091A601F091A70186E08083E0914C
:100EE000A401F091A501808180618083E091A4013B
:100EF000F091A501808188608083E091A401F09148
:100F0000A501808180688083E091A401F091A50112
:100F100080818F7D80838091E3028C3008F051C006
:100F200061E08AE00E946F028091E302E82FF0E026
:100F30009F01220F331FE20FF31FE15DFD4F9081F0
:100F4000907C9A6090831092E4021092E5026CE02B
:100F50000E94B60E9CE0899FB001112440E050E051
:100F60009A01260F371FF901EE0FFF1F2E0F3F1FAB
:100F7000F901E15DFD4F908196FD16C04F5F5F4F17
:100F80004C30510569F781110FC01092800082E04A
:100F9000809381001092850010928400B19A809114
:100FA0006F00826080936F00E091E302F0E0CF0178
:100FB000880F991FE80FF91FE15DFD4F8081806464
:100FC000808361E082E00E946F0261E083E00E9422
:100FD0006F0261E084E00E946F0261E085E00E94A0
:100FE0006F0222242394312C10928C0110928D01D7
:100FF00010928E0110928F01A2E0B0E0B0939101A7
:10100000A09390012FB7F89460915E0170915F01F9
:1010100080916001909161012FBF0E948D0D209100
:101020008C0130918D0140918E0150918F010E9471
:101030007A0C20E030E04AE754E40E94EC0C6B01AB
:101040007C01609388017093890180938A01909359
:101050008B01E2E0F0E0F0938701E0938601F093EA
:101060008501E09384018091820190918301892B15
:10107000E1F580E090E0A0E2B1E480937E019093FE
:101080007F01A0938001B093810180937A019093B6
:101090007B01A0937C01B0937D0180E090E0A0E211
:1010A000B0E48093760190937701A0937801B09398
:1010B000790180E090E0A0E8BFE380937201909313
:1010C0007301A0937401B093750180E090E0A0E7F4
:1010D000B1E480936E0190936F01A0937001B0937F
:1010E0007101309283012092820100916C01109174
:1010F0006D01023011050CF06FC320E030E0A90152
:10110000C701B6010E943F0E87FD5BC020917E01A2
:1011100030917F014091800150918101C701B6015A
:101120000E94E70C181614F00E94510420917E01D1
:1011300030917F014091800150918101C701B6013A
:101140000E94E70C1816ECF18090680190906901FC
:10115000A0906A01B0906B01A5019401C701B6018E
:101160000E94E70C811104C08AE590E00E948C0087
:1011700020E030E040E05FE3C501B4010E947B0C59
:101180009B01AC01C701B6010E94E70C811147C069
:1011900080E090E00E948C002091760130917701F0
:1011A0004091780150917901C501B4010E947B0CF6
:1011B000609368017093690180936A0190936B0159
:1011C0002EC080907E0190907F01A0908001B09011
:1011D0008101A5019401C701B6010E943F0E1816B6
:1011E000F4F420E030E040E850E4C501B4010E948E
:1011F0007B0C2091720130917301409174015091E8
:1012000075010E947B0C9B01AC01C701B6010E94D5
:10121000E70C181624F080E090E00E948C0080908B
:101220007E0190907F01A0908001B0908101A50186
:101230009401C701B6010E943F0E87FD12C020E055
:1012400030E040E050E4C501B4010E947B0C9B01FA
:10125000AC01C701B6010E94E70C181614F00E94F9
:10126000410420E030E040E050E4C501B4010E94B8
:101270007B0C2B013C019B01AC01C701B6010E9414
:101280003F0E87FD16C0209172013091730140918D
:10129000740150917501C301B2010E947B0C9B0146
:1012A000AC01C701B6010E94E70C181614F00E94A9
:1012B00051048091720190917301A0917401B091D9
:1012C000750189839A83AB83BC839C01AD01C30103
:1012D000B2010E947B0C9B01AC01C701B6010E94C8
:1012E0003F0E87FD18C020E030E040E850E4C50123
:1012F000B4010E947B0C29813A814B815C810E9460
:101300007B0C9B01AC01C701B6010E94E70C1816CB
:1013100014F00E94410420E030E040E850E4C501B0
:10132000B4010E947B0C29813A814B815C810E942F
:101330007B0C9B01AC01C701B6010E943F0E87FDEB
:101340004BC280917A0190917B01A0917C01B09178
:101350007D0189879A87AB87BC87A5019401BC0171
:10136000CD010E947B0C6D837E838F83988720E064
:1013700030E040E850E40E947B0C29813A814B81A7
:101380005C810E947B0C4B015C019B01AC01C7019D
:10139000B6010E94E70C18160CF43FC00E945104DD
:1013A00040906E0150906F016090700170907101DB
:1013B000A3019201C701B6010E94E70C811104C08C
:1013C0008AE590E00E948C0020E030E040E05FE39E
:1013D000C301B2010E947B0C9B01AC01C701B601A5
:1013E0000E94E70C811122C080E090E00E948C00F6
:1013F00020917601309177014091780150917901E7
:10140000C301B2010E947B0C60936E0170936F0167
:10141000809370019093710109C0A5019401C701E7
:10142000B6010E943F0E18160CF4D9C1A501940113
:10143000C701B6010E943F0E87FD1AC020E030E0D0
:1014400040EC50E46D817E818F8198850E947B0CF9
:1014500029813A814B815C810E947B0C9B01AC010C
:10146000C701B6010E94E70C181614F00E9431045F
:1014700020E030E040EC50E46D817E818F819885E2
:101480000E947B0C2B013C0129813A814B815C81BC
:101490000E947B0C9B01AC01C701B6010E943F0E6C
:1014A00087FD18C029813A814B815C81CA01B9014D
:1014B0000E947B0C9B01AC01C301B2010E947B0C1A
:1014C0009B01AC01C701B6010E94E70C181614F08D
:1014D0000E94510429813A814B815C81CA01B90182
:1014E0000E947B0C4B015C019B01AC01C301B2016A
:1014F0000E947B0C9B01AC01C701B6010E943F0E0C
:1015000087FD18C020E030E040E051E46D817E812D
:101510008F8198850E947B0CA50194010E947B0C11
:101520009B01AC01C701B6010E94E70C181614F02C
:101530000E94310420E030E040E051E46D817E8182
:101540008F8198850E947B0CA50194010E947B0CE1
:101550009B01AC01C701B6010E94E70C81113CC19F
:1015600029853A854B855C856D817E818F81988543
:101570000E947B0C20E030E040E051E40E947B0CB4
:10158000A50194010E947B0C60937E0170937F0102
:1015900080938001909381010F5F1F4F10936D0125
:1015A00000936C018091660190916701892B61F431
:1015B000C0926201D0926301E0926401F0926501F1
:1015C0003092670120926601609166017091670117
:1015D000072E000C880B990B0E948F0D2091620141
:1015E0003091630140916401509165010E94440E65
:1015F0006B017C01609368017093690180936A01BB
:1016000090936B0120E030E040E850E469857A85F2
:101610008B859C850E947B0C29813A814B815C8162
:101620000E947B0C9B01AC01C701B6010E947B0CA0
:101630006B017C014B015C0160936E0170936F0143
:1016400080937001909371019B01AC010E94B10ED7
:10165000882319F069E471E01AC026013701E89483
:1016600077F82FEF3FEF4FE75FE7C301B2010E942A
:10167000B10E811111C02FEF3FEF4FE75FE7C301BC
:10168000B2010E94E70C18163CF46DE471E082E9A7
:1016900091E00E94630484C02FEF3FEF4FE75FE4C7
:1016A000C701B6010E943F0E18161CF461E571E0F7
:1016B000EECF2FEF3FEF4FE75FECC701B6010E947F
:1016C000E70C87FDF3CF20E030E0A901C701B601A8
:1016D0000E94E70C87FF11C0E0919201F091930105
:1016E0000190F081E02D6DE282E991E009954601DB
:1016F0005701B7FAB094B7F8B0942AE037ED43EA4F
:101700005BE3C501B4010E947B0C4B015C010E94AC
:101710005E0D6B017C010E948D0D9B01AC01C5012A
:10172000B4010E947A0C4B015C014AE0C701B6018A
:101730000E947804E0919201F09193010190F08170
:10174000E02D6EE282E991E0099520E030E040E290
:1017500051E4C501B4010E94440E6B017C010E945A
:101760005E0D4B01A12CB12C4AE0C501B4010E94D1
:101770007804C501B4010E948D0D9B01AC01C70125
:10178000B6010E947A0C20E030E040E251E40E9471
:10179000440E0E945E0D80E090E04AE00E947804D2
:1017A00065E571E082E991E00E9463048091660141
:1017B0009091670101969093670180936601209153
:1017C0006C0130916D0180918601909187012817FD
:1017D000390711F40E9421040E940C0205CC20E07C
:1017E00030E040E051E46D817E818F8198850E94D8
:1017F0007B0C2B013C0129813A814B815C81CA0120
:10180000B9010E947B0C9B01AC01C301B2010E9493
:101810007B0C9B01AC01C701B6010E94E70C1816B6
:101820000CF404CE80E090E00E948C0007CE052EE0
:1018300097FB1EF400940E942E0C57FD07D00E94C7
:10184000490C07FC03D04EF40C942E0C5095409597
:10185000309521953F4F4F4F5F4F0895909580955C
:10186000709561957F4F8F4F9F4F08950E946B0C2D
:10187000A59F900DB49F900DA49F800D911D1124E4
:101880000895B7FF0C94360C0E94360C821B930B04
:101890000895A1E21A2EAA1BBB1BFD010DC0AA1FB1
:1018A000BB1FEE1FFF1FA217B307E407F50720F0C9
:1018B000A21BB30BE40BF50B661F771F881F991F44
:1018C0001A9469F760957095809590959B01AC018D
:1018D000BD01CF010895A29FB001B39FC001A39F96
:1018E000700D811D1124911DB29F700D811D112459
:1018F000911D08955058BB27AA270E94920C0C9462
:10190000050E0E94F70D38F00E94FE0D20F039F40C
:101910009F3F19F426F40C94F40D0EF4E095E7FBC8
:101920000C94EE0DE92F0E94160E58F3BA176207B9
:1019300073078407950720F079F4A6F50C94380E08
:101940000EF4E0950B2EBA2FA02D0B01B9019001DA
:101950000C01CA01A0011124FF27591B99F0593F1E
:1019600050F4503E68F11A16F040A22F232F342F66
:101970004427585FF3CF469537952795A795F040B4
:101980005395C9F77EF41F16BA0B620B730B840BC9
:10199000BAF09150A1F0FF0FBB1F661F771F881F81
:1019A000C2F70EC0BA0F621F731F841F48F48795D9
:1019B00077956795B795F7959E3F08F0B0CF9395CB
:1019C000880F08F09927EE0F9795879508950E9444
:1019D000CA0D08F481E008950E94000D0C94050ED4
:1019E0000E94FE0D58F00E94F70D40F029F45F3F71
:1019F00029F00C94EE0D51110C94390E0C94F40D49
:101A00000E94160E68F39923B1F3552391F3951BA9
:101A1000550BBB27AA2762177307840738F09F5F0F
:101A20005F4F220F331F441FAA1FA9F335D00E2E7C
:101A30003AF0E0E832D091505040E695001CCAF7E9
:101A40002BD0FE2F29D0660F771F881FBB1F2617AC
:101A500037074807AB07B0E809F0BB0B802DBF0183
:101A6000FF2793585F4F3AF09E3F510578F00C9452
:101A7000EE0D0C94390E5F3FE4F3983ED4F3869557
:101A800077956795B795F7959F5FC9F7880F911D73
:101A90009695879597F90895E1E0660F771F881F5F
:101AA000BB1F621773078407BA0720F0621B730B12
:101AB000840BBA0BEE1F88F7E09508950E941E0E66
:101AC00088F09F5798F0B92F9927B751B0F0E1F0FF
:101AD000660F771F881F991F1AF0BA95C9F714C0AF
:101AE000B13091F00E94380EB1E008950C94380E98
:101AF000672F782F8827B85F39F0B93FCCF38695E8
:101B000077956795B395D9F73EF490958095709544
:101B100061957F4F8F4F9F4F0895E89409C097FBC1
:101B20003EF490958095709561957F4F8F4F9F4FB4
:101B30009923A9F0F92F96E9BB279395F6958795F8
:101B400077956795B795F111F8CFFAF4BB0F11F4BB
:101B500060FF1BC06F5F7F4F8F4F9F4F16C0882362
:101B600011F096E911C0772321F09EE8872F762F98
:101B700005C0662371F096E8862F70E060E02AF0D9
:101B80009A95660F771F881FDAF7880F96958795C5
:101B900097F90895990F0008550FAA0BE0E8FEEF9A
:101BA00016161706E807F907C0F012161306E40721
:101BB000F50798F0621B730B840B950B39F40A261A
:101BC00061F0232B242B252B21F408950A2609F4F8
:101BD000A140A6958FEF811D811D089597F99F67FC
:101BE00080E870E060E008959FEF80EC08950024A5
:101BF0000A941616170618060906089500240A9472
:101C000012161306140605060895092E0394000CF7
:101C100011F4882352F0BB0F40F4BF2B11F460FF86
:101C200004C06F5F7F4F8F4F9F4F089557FD9058AF
:101C3000440F551F59F05F3F71F04795880F97FB90
:101C4000991F61F09F3F79F087950895121613064A
:101C50001406551FF2CF4695F1DF08C01616170679
:101C60001806991FF1CF86957105610508940895AE
:101C7000E894BB2766277727CB0197F908950E9440
:101C8000CA0D08F48FEF08950E94570E0C94050EAC
:101C90000E94F70D38F00E94FE0D20F0952311F000
:101CA0000C94EE0D0C94F40D11240C94390E0E943A
:101CB000160E70F3959FC1F3950F50E0551F629F6C
:101CC000F001729FBB27F00DB11D639FAA27F00D95
:101CD000B11DAA1F649F6627B00DA11D661F829FBC
:101CE0002227B00DA11D621F739FB00DA11D621FA1
:101CF000839FA00D611D221F749F3327A00D611DBE
:101D0000231F849F600D211D822F762F6A2F11249F
:101D10009F5750409AF0F1F088234AF0EE0FFF1FD2
:101D2000BB1F661F771F881F91505040A9F79E3F29
:101D3000510580F00C94EE0D0C94390E5F3FE4F3E6
:101D4000983ED4F3869577956795B795F795E7957F
:101D50009F5FC1F7FE2B880F911D9695879597F988
:101D600008950E94CA0D880B990B0895991B79E07C
:101D700004C0991F961708F0961B881F7A95C9F71B
:101D800080950895EE0FFF1F0590F491E02D0994C2
:0E1D900081E090E0F8940C94CD0EF894FFCF13
:101D9E003132334134353642373839432A302E3DCD
:101DAE0000000000A30110013B01EA016C014A0191
:101DBE005E010000000041031001EE03ED03000080
:101DCE0000001D041904F1035072657373202A205C
:101DDE00746F205374617274006E616E00696E666A
:081DEE00006F7666000D0A008B
:107E0000112484B714BE81FFF0D085E080938100F7
:107E100082E08093C00088E18093C10086E0809377
:107E2000C20080E18093C4008EE0C9D0259A86E02C
:107E300020E33CEF91E0309385002093840096BBD3
:107E4000B09BFECF1D9AA8958150A9F7CC24DD24C4
:107E500088248394B5E0AB2EA1E19A2EF3E0BF2EE7
:107E6000A2D0813461F49FD0082FAFD0023811F036
:107E7000013811F484E001C083E08DD089C08234E0
:107E800011F484E103C0853419F485E0A6D080C0E4
:107E9000853579F488D0E82EFF2485D0082F10E0AE
:107EA000102F00270E291F29000F111F8ED06801E7
:107EB0006FC0863521F484E090D080E0DECF843638
:107EC00009F040C070D06FD0082F6DD080E0C81688
:107ED00080E7D80618F4F601B7BEE895C0E0D1E017
:107EE00062D089930C17E1F7F0E0CF16F0E7DF06D8
:107EF00018F0F601B7BEE89568D007B600FCFDCFD4
:107F0000A601A0E0B1E02C9130E011968C91119780
:107F100090E0982F8827822B932B1296FA010C0160
:107F200087BEE89511244E5F5F4FF1E0A038BF0790
:107F300051F7F601A7BEE89507B600FCFDCF97BE46
:107F4000E89526C08437B1F42ED02DD0F82E2BD052
:107F50003CD0F601EF2C8F010F5F1F4F84911BD097
:107F6000EA94F801C1F70894C11CD11CFA94CF0C13
:107F7000D11C0EC0853739F428D08EE10CD085E9AC
:107F80000AD08FE07ACF813511F488E018D01DD067
:107F900080E101D065CF982F8091C00085FFFCCF94
:107FA0009093C60008958091C00087FFFCCF809118
:107FB000C00084FD01C0A8958091C6000895E0E648
:107FC000F0E098E1908380830895EDDF803219F02E
:107FD00088E0F5DFFFCF84E1DECF1F93182FE3DFCA
:107FE0001150E9F7F2DF1F91089580E0E8DFEE27F6
:047FF000FF270994CA
:027FFE00040479
:0400000300007E007B
:00000001FF
