:100000000C9462000C948A000C948A000C948A0070
:100010000C948A000C948A000C948A000C948A0038
:100020000C948A000C948A000C948A000C942D0580
:100030000C948A000C948A000C948A000C948A0018
:100040000C94E3040C948A000C94B1040C948B047B
:100050000C948A000C948A000C948A000C948A00F8
:100060000C948A000C948A000000000023002600F3
:10007000290000000000240027002A0000000000E2
:10008000250028002B0004040404040404040202D4
:100090000202020203030303030301020408102007
:1000A0004080010204081020010204081020000012
:1000B0000008000201000003040700000000000027
:1000C0000000EE0511241FBECFEFD8E0DEBFCDBF8C
:1000D00011E0A0E0B1E0E6E9FEE102C005900D927A
:1000E000AC36B107D9F722E0ACE6B1E001C01D9211
:1000F000A23FB207E1F710E0C2E6D0E004C02197CA
:10010000FE010E943E0FC136D107C9F70E94C50605
:100110000C94490F0C940000CF92DF92EF92FF9263
:10012000DC01A03282E0B8070CF03EC0B7FD06C08B
:10013000A53BB1052CF0A4EBB0E002C0A0E0B0E01C
:100140008091F00228E830E06901C81AD10887FDE3
:10015000D394CC0CDD1CCC0CDD1C0D2C000CEE085B
:10016000FF088091F10228E532E0281B310987FD64
:100170003395220F331F220F331FA901330F660B54
:10018000770B9A01AB012C193D094E095F090E94BA
:10019000F10C24EB30E040E050E00E94C70CC20EAE
:1001A000D31EE41EF51ED6019091EF029C3098F507
:1001B0008091F00248E850E0481B510987FD5395B3
:1001C000440F551F440F551FA417B5078CF080919D
:1001D000F10228E532E0281B310987FD3395220F13
:1001E000331F220F331FAD012A173B070CF4A9015F
:1001F00042505109440F551F2FB7F894892F90E0B2
:10020000FC01EE0FFF1F8E0F9F1FFC01ED5BFD4FEA
:10021000528341832FBFFF90EF90DF90CF900895DE
:10022000CF92DF92EF92FF920F931F93CF93DF93C2
:100230006C017A018B01C0E0D0E0CE15DF0589F0BA
:10024000D8016D918D01D601ED91FC910190F08165
:10025000E02DC6010995892B11F47E0102C021967B
:10026000ECCFC701DF91CF911F910F91FF90EF90DD
:10027000DF90CF900895FC01538D448D252F30E001
:10028000842F90E0821B930B541710F0CF960895A3
:1002900001970895FC01918D828D981761F0828DF0
:1002A000DF01A80FB11D5D968C91928D9F5F9F73AA
:1002B000928F90E008958FEF9FEF0895FC01918D4C
:1002C000828D981731F0828DE80FF11D858D90E0B9
:1002D00008958FEF9FEF0895FC01918D228D892F56
:1002E00090E0805C9F4F821B91098F73992708953E
:1002F00086EA91E00E946C0121E0892B09F420E05C
:10030000822F0895FC01848DDF01A80FB11DA35A2F
:10031000BF4F2C91848D90E001968F739927848F25
:10032000A689B7892C93A089B1898C9180648C931C
:10033000938D848D981306C00288F389E02D808107
:100340008F7D80830895EF92FF920F931F93CF9339
:10035000DF93EC0181E0888F9B8D8C8D981305C015
:10036000E889F989808185FD24C0F62E0B8D10E087
:100370000F5F1F4F0F731127E02E8C8DE8120CC0FA
:100380000FB607FCFACFE889F989808185FFF5CFA0
:10039000CE010E948201F1CF8B8DFE01E80FF11D8D
:1003A000E35AFF4FF0820B8FEA89FB8980818062DC
:1003B00007C0EE89FF896083E889F98980818064BC
:1003C000808381E090E0DF91CF911F910F91FF90AA
:1003D000EF900895CF93DF93EC01888D8823C9F0C7
:1003E000EA89FB89808185FD05C0A889B9898C913E
:1003F00086FD0FC00FB607FCF5CF808185FFF2CFD9
:10040000A889B9898C9185FFEDCFCE010E94820128
:10041000E7CFDF91CF91089580E090E0892B29F01C
:100420000E94780181110C9400000895833081F0BE
:1004300028F4813099F08230A1F008958730A9F036
:100440008830B9F08430D1F4809180008F7D03C072
:10045000809180008F7780938000089584B58F7796
:1004600002C084B58F7D84BD08958091B0008F77E0
:1004700003C08091B0008F7D8093B00008951F93DA
:10048000CF93DF93282F30E0F901E255FF4F84919D
:10049000F901E656FF4FD491F901EA57FF4FC49195
:1004A000CC23C9F0162F81110E941602EC2FF0E028
:1004B000EE0FFF1FE458FF4FA591B4918FB7F8944A
:1004C000111105C09C91ED2FE095E92302C0EC913C
:1004D000ED2BEC938FBFDF91CF911F910895CF93B8
:1004E000DF9390E0FC01E656FF4F2491FC01EA57B0
:1004F000FF4F8491882361F190E0880F991FFC01E0
:10050000EE58FF4FC591D491FC01E458FF4FA591DF
:10051000B491611109C09FB7F89488812095822316
:100520008883EC912E230BC0623061F49FB7F8945E
:100530003881822F809583238883EC912E2B2C93F6
:100540009FBF06C08FB7F894E8812E2B28838FBFFA
:10055000DF91CF910895CF93DF93EC0160E08E811E
:100560000E943F0261E08E810E943F0260E08E8126
:100570000E943F028BE891E00197F1F7DF91CF9164
:100580000895CF92DF92EF92FF920F931F93CF9334
:10059000DF937C016C0187E0C80ED11CC0E0D0E085
:1005A000062F10E0B8010C2E02C0759567950A94CD
:1005B000E2F76170F60181916F010E943F0221967E
:1005C000C430D10579F7C701DF91CF911F910F9109
:1005D000FF90EF90DF90CF900C94AB02CF92DF9220
:1005E000EF92FF920F931F93CF93DF93EC01F62EC0
:1005F000642F8C810E943F028D818F3F19F060E053
:100600000E943F028F850F2D10E084FF25C06E01F0
:1006100087E0C80ED11CE12CF12CB8010E2C02C0D1
:10062000759567950A94E2F76170F60181916F0103
:100630000E943F02FFEFEF1AFF0A88E0E816F1047C
:1006400061F7CE01DF91CF911F910F91FF90EF9055
:10065000DF90CF900C94AB02B80184E0759567955C
:100660008A95E1F7CE010E94C1026F2DCE01DF9184
:10067000CF911F910F91FF90EF90DF90CF900C944E
:10068000C10241E00E94EE0281E090E0089540E066
:100690000C94EE02EF92FF920F931F93CF93DF9390
:1006A000EC01623018F08F8588608F876B8B1C8A15
:1006B00080E48D8B80E18E8B80E58F8B61E08C8177
:1006C0000E946F028D818F3F19F061E00E946F02DE
:1006D00061E08E810E946F027E0187E0E80EF11CCE
:1006E00000E010E08F8584FD03C084E090E002C04C
:1006F00088E090E0081719074CF461E0F701819158
:100700007F010E946F020F5F1F4FECCF8BE39DE0D4
:100710000197F1F760E08C810E943F0260E08E81DA
:100720000E943F028D818F3F19F060E00E943F02DE
:100730006F8564FD1DC063E0CE010E94C1020BE421
:1007400016E4C8010197F1F763E0CE010E94C102EF
:10075000C8010197F1F763E0CE010E94C10283E571
:1007600092E00197F1F762E0CE010E94C10216C04B
:100770006062CE010E9447038BE496E40197F1F793
:100780006F856062CE010E94470383E592E0019786
:10079000F1F76F856062CE010E9447036F8560624A
:1007A000CE010E94470384E0888B6CE0CE010E945A
:1007B000470361E0CE010E9447038BE39FE101976D
:1007C000F1F782E0898B66E0CE01DF91CF911F9136
:1007D0000F91FF90EF900C944703089580E090E014
:1007E0000895CF93DF9370E0FB01E255FF4F8491B2
:1007F000FB01E656FF4FD491FB01EA57FF4FC4912E
:10080000CC2391F081110E941602EC2FF0E0EE0F44
:10081000FF1FE859FF4FA591B491EC91ED2381E0C2
:1008200090E021F480E002C080E090E0DF91CF9181
:100830000895862F642F0C943F02862F642F0C940A
:100840006F0260E080E00E943F0260E081E00E9471
:100850003F0260E082E00E943F0260E083E00C948F
:100860003F0261E080E00E943F0260E081E00E9480
:100870003F0260E082E00E943F0261E083E00C946E
:100880003F0260E080E00E943F0261E081E00E9460
:100890003F0261E082E00E943F0260E083E00C944E
:1008A0003F0261E080E00E943F0260E081E00E9440
:1008B0003F0261E082E00E943F0260E083E00C942E
:1008C0003F020E94440F6115710579F0FB01019010
:1008D0000020E9F73197AF01461B570BDC01ED9182
:1008E000FC910280F381E02D099480E090E008956E
:1008F000CF93DF93BC0186EA91E00E946304EC0190
:1009000060E471E086EA91E00E9463048C0F9D1F11
:10091000DF91CF9108951F920F920FB60F9211247D
:100920002F933F934F935F936F937F938F939F93F7
:10093000AF93BF93EF93FF9386EA91E00E94820109
:10094000FF91EF91BF91AF919F918F917F916F91A7
:100950005F914F913F912F910F900FBE0F901F907D
:1009600018951F920F920FB60F9211242F938F9309
:100970009F93EF93FF93E091B601F091B7018081CF
:10098000E091BC01F091BD0182FD12C09081809187
:10099000BF018F5F8F732091C001821751F0E091EA
:1009A000BF01F0E0EA55FE4F958F8093BF0101C073
:1009B0008081FF91EF919F918F912F910F900FBEAA
:1009C0000F901F9018951F920F920FB60F9211243F
:1009D0002F933F938F939F93AF93BF938091720117
:1009E00090917301A0917401B091750130917101E2
:1009F00023E0230F2D3720F40196A11DB11D05C062
:100A000026E8230F0296A11DB11D2093710180934A
:100A1000720190937301A0937401B093750180915A
:100A20006D0190916E01A0916F01B09170010196DE
:100A3000A11DB11D80936D0190936E01A0936F0174
:100A4000B0937001BF91AF919F918F913F912F9182
:100A50000F900FBE0F901F9018951F920F920FB618
:100A60000F9211242F933F934F935F936F937F9334
:100A70008F939F93AF93BF93EF93FF9380916C01FC
:100A800087FF05C010928500109284001BC0209142
:100A90006C01022E000C330B8091670290E0281746
:100AA000390784F480916C01082E000C990BFC012D
:100AB000EE0FFF1F8E0F9F1FFC01ED5BFD4F80812E
:100AC00086FD15C080916C018F5F80936C01209131
:100AD0006C01022E000C330B8091670290E0281706
:100AE0003907C4F480916C018C3064F113C080919B
:100AF0006C01082E000C990BFC01EE0FFF1F8E0FEE
:100B00009F1FFC01ED5BFD4F808160E08F730E94B1
:100B10003F02D8CF80918400909185000496803464
:100B20009C4918F480E49CE905C080918400909170
:100B30008500049690938900809388008FEF8093BE
:100B40006C013BC0209184003091850080916C0144
:100B5000082E000C990BFC01EE0FFF1F8E0F9F1F3C
:100B6000FC01ED5BFD4F81819281820F931F909379
:100B700089008093880080916C01082E000C990BED
:100B8000FC01EE0FFF1F8E0F9F1FFC01ED5BFD4F61
:100B9000808186FF12C080916C01082E000C990B99
:100BA000FC01EE0FFF1F8E0F9F1FFC01ED5BFD4F41
:100BB000808161E08F730E943F02FF91EF91BF91AE
:100BC000AF919F918F917F916F915F914F913F91E5
:100BD0002F910F900FBE0F901F9018951092A901A2
:100BE0001092A80188EE93E0A0E0B0E08093AA0103
:100BF0009093AB01A093AC01B093AD018CE191E077
:100C00009093A7018093A60185EC90E09093B301A7
:100C10008093B20184EC90E09093B5018093B4018D
:100C200080EC90E09093B7018093B60181EC90E066
:100C30009093B9018093B80182EC90E09093BB014E
:100C40008093BA0186EC90E09093BD018093BC0143
:100C50001092BF011092C0011092C1011092C20106
:100C6000809167028C30A0F491E0980F9093670216
:100C70008093EF0290E0FC01EE0FFF1F8E0F9F1F8D
:100C8000FC01ED5BFD4F88EB9BE09283818303C009
:100C90008FEF8093EF0210928202109286021092E0
:100CA0008502109287028AE391E0909381028093FB
:100CB000800280E090E0FC01E058FD4F148E10A20D
:100CC000178E11A206968C339105A9F784E091E066
:100CD0009093E3028093E20280E091E09093E5023A
:100CE0008093E40284E08093E6028093E70288E048
:100CF00091E09093E1028093E0028AE090E090938B
:100D0000E9028093E80284EF91E09093EB028093F4
:100D1000EA021092EE021092ED021092DC021092A2
:100D2000DD021092DE021092DF021092EC021092AD
:100D30006B0210926A028EE291E0909369028093B6
:100D400068028EE080936C028FEF80936D028FE0DB
:100D500080936E0280E180936F0281E18093700244
:100D600082E18093710283E1809372021092730298
:100D7000109274021092750210927602109277020D
:100D800061E088E692E00C944A03CF93DF93CDB7FD
:100D9000DEB728970FB6F894DEBF0FBECDBF7894AC
:100DA00084B5826084BD84B5816084BD85B5826070
:100DB00085BD85B5816085BD80916E008160809321
:100DC0006E0010928100809181008260809381008A
:100DD000809181008160809381008091800081609A
:100DE000809380008091B10084608093B1008091F5
:100DF000B00081608093B00080917A00846080931D
:100E00007A0080917A00826080937A0080917A00E3
:100E1000816080937A0080917A00806880937A0064
:100E20001092C10062E088E692E00E944A0361E00D
:100E300088E692E00E9447038BE39FE10197F1F778
:100E400063E471E088E692E00E946304E091B601F9
:100E5000F091B70182E08083E091B201F091B3019B
:100E60001082E091B401F091B5018FEC8083109273
:100E7000BE01E091BA01F091BB0186E08083E09170
:100E8000B801F091B901808180618083E091B8015F
:100E9000F091B901808188608083E091B801F09180
:100EA000B901808180688083E091B801F091B90137
:100EB00080818F7D808361E084E00E946F0261E029
:100EC00080E00E946F0261E081E00E946F0261E0B9
:100ED00082E00E946F0261E083E00E946F028091D5
:100EE000EF028C3008F051C061E084E00E946F0294
:100EF0008091EF02E82FF0E09F01220F331FE20FF5
:100F0000F31FED5BFD4F9081907C94609083109275
:100F1000F0021092F1026CE00E94320F9CE0899F77
:100F2000B001112440E050E09A01260F371FF9016B
:100F3000EE0FFF1F2E0F3F1FF901ED5BFD4F90815C
:100F400096FD16C04F5F5F4F4C30510569F7811118
:100F50000FC01092800082E0809381001092850083
:100F600010928400B19A80916F00826080936F002C
:100F7000E091EF02F0E0CF01880F991FE80FF91F11
:100F8000ED5BFD4F80818064808301E010E0809103
:100F9000A4019091A501892BE9F42FB7F8946091F1
:100FA00072017091730180917401909175012FBF4E
:100FB0000E940E0E6093A0017093A1018093A20184
:100FC0009093A3011093A5010093A40110939F0196
:100FD00000939E01A090A401B090A501A1E0AA16E3
:100FE000B10409F0D1C42FB7F894609172017091E7
:100FF000730180917401909175012FBF0E940E0EB4
:101000002091A0013091A1014091A2015091A30132
:101010000E942A0D20E030E04AE754E40E949C0D33
:101020006B017C0160939A0170939B0180939C01FA
:1010300090939D0180919801909199018130910543
:1010400009F44DC020919E0130919F01A9014F5F8D
:101050005F4F50939F0140939E01309397012093DF
:101060009601892BE1F580E090E0A0E2B1E4809365
:10107000920190939301A0939401B0939501809372
:101080008E0190938F01A0939001B093910180E025
:1010900090E0A0E2B0E480938A0190938B01A0934A
:1010A0008C01B0938D0180E090E0A0E8BFE38093D5
:1010B000860190938701A0938801B093890180E015
:1010C00090E0A0E6B1E48093820190938301A09325
:1010D0008401B0938501B0929901A092980120916A
:1010E00080013091810180919E0190919F0128178C
:1010F00039070CF049C420E030E0A901C701B6016E
:101100000E94C00E87FD14C020919201309193017E
:101110004091940150919501C701B6010E94970D2D
:10112000181634F00E94510484E591E00E9478047E
:10113000C0909A01D0909B01E0909C01F0909D019D
:1011400020E030E0A901C701B6010E94C00E87FD72
:101150004BC02091920130919301409194015091A4
:101160009501C701B6010E94970D1816ECF1809009
:101170007C0190907D01A0907E01B0907F01A5013F
:101180009401C701B6010E94970D811104C08AE540
:1011900090E00E948C0020E030E040E85EE3C50172
:1011A000B4010E942B0D9B01AC01C701B6010E9446
:1011B000970D811147C080E090E00E948C00209143
:1011C0008A0130918B0140918C0150918D01C501B4
:1011D000B4010E942B0D60937C0170937D0180937C
:1011E0007E0190937F012EC0809092019090930198
:1011F000A0909401B0909501A5019401C701B6019A
:101200000E94C00E1816F4F420E030E040E450E4F0
:10121000C501B4010E942B0D2091860130918701F8
:1012200040918801509189010E942B0D9B01AC01D6
:10123000C701B6010E94970D181624F080E090E0D7
:101240000E948C008090920190909301A090940154
:10125000B0909501A5019401C701B6010E94C00E8E
:1012600087FD16C020E030E040EC5FE3C501B4012B
:101270000E942B0D9B01AC01C701B6010E94970D86
:10128000181634F08CE591E00E9478040E94410425
:10129000C0909A01D0909B01E0909C01F0909D013C
:1012A00020E030E040EC5FE36091920170919301A7
:1012B00080919401909195010E942B0D4B015C014E
:1012C0009B01AC01C701B6010E94C00E87FD1AC088
:1012D00020918601309187014091880150918901C8
:1012E000C501B4010E942B0D9B01AC01C701B601E1
:1012F0000E94970D181634F084E591E00E9478045E
:101300000E945104C0909A01D0909B01E0909C01F2
:10131000F0909D0140909201509093016090940153
:10132000709095018090860190908701A09088012F
:10133000B090890120E030E040EC5FE3C301B201EE
:101340000E942B0DA50194010E942B0D9B01AC0165
:10135000C701B6010E94C00E87FD1AC020E030E030
:1013600040E450E4C301B2010E942B0DA501940199
:101370000E942B0D9B01AC01C701B6010E94970D85
:10138000181634F08CE591E00E9478040E94410424
:101390002091800130918101809196019091970177
:1013A0002817390731F080919E0190919F01892B78
:1013B00031F482E691E00E9478040E942104209199
:1013C00080013091810180919601909197012817B9
:1013D00039070CF0D9C2C0909A01D0909B01E090DF
:1013E0009C01F0909D01409092015090930160907B
:1013F0009401709095018090860190908701A09053
:101400008801B090890120E030E040E450E4C3015D
:10141000B2010E942B0DA50194010E942B0D9B018E
:10142000AC01C701B6010E94C00E87FDADC220917C
:101430008E0130918F014091900150919101C30133
:10144000B2010E942B0D20E030E040E450E40E9405
:101450002B0DA50194010E942B0D9B01AC01C7012E
:10146000B6010E94970D181634F084E591E00E94B1
:1014700078040E945104C0909A01D0909B01E090A2
:101480009C01F0909D018091920190919301A09117
:101490009401B091950189839A83AB83BC8380903A
:1014A000860190908701A0908801B090890120E08A
:1014B00030E040E450E4BC01CD010E942B0DA501B9
:1014C00094010E942B0D9B01AC01C701B6010E9443
:1014D000C00E87FD5DC020918E0130918F0140913B
:1014E00090015091910169817A818B819C810E9448
:1014F0002B0D20E030E040E450E40E942B0DA501CC
:1015000094010E942B0D9B01AC01C701B6010E9402
:10151000970D1816ECF14090820150908301609075
:10152000840170908501A3019201C701B6010E9458
:10153000970D811104C08AE590E00E948C0020E0A4
:1015400030E040E85EE3C301B2010E942B0D9B0135
:10155000AC01C701B6010E94970D81115DC080E00A
:1015600090E00E948C0020918A0130918B01409183
:101570008C0150918D01C301B2010E942B0D60932B
:10158000820170938301809384019093850144C00C
:1015900020918E0130918F014091900150919101E5
:1015A00069817A818B819C810E942B0D2B013C01EA
:1015B00020E030E040E450E40E942B0DA5019401AE
:1015C0000E942B0D9B01AC01C701B6010E94C00E09
:1015D000181614F520E030E040EC50E4C301B201ED
:1015E0000E942B0D2B013C01A5019401C501B40102
:1015F0000E942B0D9B01AC01C301B2010E942B0D77
:101600009B01AC01C701B6010E94970D181624F08A
:1016100080E090E00E948C0020918E0130918F013B
:10162000409190015091910169817A818B819C81D7
:101630000E942B0D2B013C0120E030E040E450E4FF
:101640000E942B0DA50194010E942B0D9B01AC0162
:10165000C701B6010E94C00E87FD1AC020E030E02D
:1016600040E950E4C301B2010E942B0DA501940191
:101670000E942B0D9B01AC01C701B6010E94970D82
:10168000181634F086E691E00E9478040E94310436
:1016900080909A0190909B01A0909C01B0909D0138
:1016A00020919201309193014091940150919501C4
:1016B00060918E0170918F018091900190919101C4
:1016C0000E942B0D20E030E040E950E40E942B0DF9
:1016D0002B013C01C0908601D0908701E0908801E9
:1016E000F0908901A70196010E942B0D9B01AC018E
:1016F000C501B4010E94C00E87FD1AC0A701960162
:10170000C701B6010E942B0D9B01AC01C301B201C0
:101710000E942B0D9B01AC01C501B4010E94970DE5
:10172000181634F084E591E00E9478040E94510478
:10173000C0909A01D0909B01E0909C01F0909D0197
:101740002091920130919301409194015091950123
:1017500060918E0170918F01809190019091910123
:101760000E942B0D2B013C01609186017091870135
:1017700080918801909189019B01AC010E942B0D01
:101780004B015C0120E030E040E950E4C301B201CC
:101790000E942B0DA50194010E942B0D9B01AC0111
:1017A000C701B6010E94C00E87FD1AC020E030E0DC
:1017B00040EC50E4C301B2010E942B0DA50194013D
:1017C0000E942B0D9B01AC01C701B6010E94970D31
:1017D000181634F086E691E00E9478040E943104E5
:1017E00080919A0190919B01A0919C01B0919D01E3
:1017F0008D839E83AF83B887C0908E01D0908F0178
:10180000E0909001F090910120919201309193012C
:101810004091940150919501C701B6010E942B0D92
:101820002B013C018091860190918701A091880154
:10183000B091890189839A83AB83BC839C01AD01FC
:10184000BC01CD010E942B0D4B015C0120E030E07A
:1018500040EC50E4C301B2010E942B0DA50194019C
:101860000E942B0D9B01AC016D817E818F8198853B
:101870000E94970D811188C0A7019601C301B20192
:101880000E942B0D20E030E040EC50E40E942B0D34
:10189000A50194010E942B0D609392017093930116
:1018A00080939401909395018090800190908101A4
:1018B0009FEF891A990A909281018092800180910C
:1018C0007A0190917B01892B81F48D819E81AF817A
:1018D000B8858093760190937701A0937801B093B7
:1018E000790110937B0100937A01A0907A01B09066
:1018F0007B01B5010B2C000C880B990B0E94100E7C
:1019000020917601309177014091780150917901D1
:101910000E94C50E2B013C0160937C0170937D01F8
:1019200080937E0190937F0120E030E040E450E41A
:10193000C701B6010E942B0D29813A814B815C8140
:101940000E942B0D9B01AC01C301B2010E942B0D23
:101950006093820170938301809384019093850149
:101960009FEFA91AB90AB0927B01A0927A018091E7
:101970009E0190919F018816990631F40E942104DE
:1019800082E691E00E9478040E940C0200CB052EB2
:1019900097FB1EF400940E94DE0C57FD07D00E94B6
:1019A000F90C07FC03D04EF40C94DE0C50954095D6
:1019B000309521953F4F4F4F5F4F089590958095FB
:1019C000709561957F4F8F4F9F4F08950E941B0D1B
:1019D000A59F900DB49F900DA49F800D911D112483
:1019E0000895B7FF0C94E60C0E94E60C821B930B43
:1019F0000895A1E21A2EAA1BBB1BFD010DC0AA1F50
:101A0000BB1FEE1FFF1FA217B307E407F50720F067
:101A1000A21BB30BE40BF50B661F771F881F991FE2
:101A20001A9469F760957095809590959B01AC012B
:101A3000BD01CF010895A29FB001B39FC001A39F34
:101A4000700D811D1124911DB29F700D811D1124F7
:101A5000911D08955058BB27AA270E94420D0C944F
:101A6000860E0E94780E38F00E947F0E20F039F426
:101A70009F3F19F426F40C94750E0EF4E095E7FBE5
:101A80000C946F0EE92F0E94970E58F3BA17620755
:101A900073078407950720F079F4A6F50C94B90E26
:101AA0000EF4E0950B2EBA2FA02D0B01B901900179
:101AB0000C01CA01A0011124FF27591B99F0593FBD
:101AC00050F4503E68F11A16F040A22F232F342F05
:101AD0004427585FF3CF469537952795A795F04053
:101AE0005395C9F77EF41F16BA0B620B730B840B68
:101AF000BAF09150A1F0FF0FBB1F661F771F881F20
:101B0000C2F70EC0BA0F621F731F841F48F4879577
:101B100077956795B795F7959E3F08F0B0CF939569
:101B2000880F08F09927EE0F9795879508950E94E2
:101B30004B0E08F481E008950E94B00D0C94860EBF
:101B40000E947F0E58F00E94780E40F029F45F3F0B
:101B500029F00C946F0E51110C94BA0E0C94750E62
:101B60000E94970E68F39923B1F3552391F3951BC7
:101B7000550BBB27AA2762177307840738F09F5FAE
:101B80005F4F220F331F441FAA1FA9F335D00E2E1B
:101B90003AF0E0E832D091505040E695001CCAF788
:101BA0002BD0FE2F29D0660F771F881FBB1F26174B
:101BB00037074807AB07B0E809F0BB0B802DBF0122
:101BC000FF2793585F4F3AF09E3F510578F00C94F1
:101BD0006F0E0C94BA0E5F3FE4F3983ED4F38695F3
:101BE00077956795B795F7959F5FC9F7880F911D12
:101BF0009695879597F90895E1E0660F771F881FFE
:101C0000BB1F621773078407BA0720F0621B730BB0
:101C1000840BBA0BEE1F88F7E0950895E89409C08D
:101C200097FB3EF490958095709561957F4F8F4F0F
:101C30009F4F9923A9F0F92F96E9BB279395F69525
:101C4000879577956795B795F111F8CFFAF4BB0FA3
:101C500011F460FF1BC06F5F7F4F8F4F9F4F16C007
:101C6000882311F096E911C0772321F09EE8872F91
:101C7000762F05C0662371F096E8862F70E060E04D
:101C80002AF09A95660F771F881FDAF7880F9695C6
:101C9000879597F90895990F0008550FAA0BE0E86A
:101CA000FEEF16161706E807F907C0F0121613061E
:101CB000E407F50798F0621B730B840B950B39F45E
:101CC0000A2661F0232B242B252B21F408950A26C4
:101CD00009F4A140A6958FEF811D811D089597F904
:101CE0009F6780E870E060E008959FEF80EC0895C2
:101CF00000240A94161617061806090608950024EB
:101D00000A9412161306140605060895092E039464
:101D1000000C11F4882352F0BB0F40F4BF2B11F4D8
:101D200060FF04C06F5F7F4F8F4F9F4F089557FD37
:101D30009058440F551F59F05F3F71F04795880F39
:101D400097FB991F61F09F3F79F0879508951216D0
:101D500013061406551FF2CF4695F1DF08C016167C
:101D600017061806991FF1CF86957105610508942D
:101D70000895E894BB2766277727CB0197F9089544
:101D80000E944B0E08F48FEF08950E94D80E0C9419
:101D9000860E0E94780E38F00E947F0E20F0952368
:101DA00011F00C946F0E0C94750E11240C94BA0E55
:101DB0000E94970E70F3959FC1F3950F50E0551F49
:101DC000629FF001729FBB27F00DB11D639FAA2790
:101DD000F00DB11DAA1F649F6627B00DA11D661FDF
:101DE000829F2227B00DA11D621F739FB00DA11D00
:101DF000621F839FA00D611D221F749F3327A00DBA
:101E0000611D231F849F600D211D822F762F6A2F55
:101E100011249F5750409AF0F1F088234AF0EE0FBA
:101E2000FF1FBB1F661F771F881F91505040A9F7E7
:101E30009E3F510580F00C946F0E0C94BA0E5F3FDC
:101E4000E4F3983ED4F3869577956795B795F79523
:101E5000E7959F5FC1F7FE2B880F911D969587959B
:101E600097F90895991B79E004C0991F961708F017
:101E7000961B881F7A95C9F780950895EE0FFF1F6E
:101E80000590F491E02D099481E090E0F8940C9491
:061E9000490FF894FFCF9A
:101E9600090A0B0C0506070837383941343536422E
:101EA600313233432A302E3D00000000A3011001D9
:101EB6003B01EA016C014A015E010000000041039A
:101EC6001001EE03ED03000000001D041904F103E8
:101ED6000D0A005072657373202A20746F205374A4
:101EE60061727400464F5257415244005249474866
:0C1EF60054004F4646004C454654000086
:107E0000112484B714BE81FFF0D085E080938100F7
:107E100082E08093C00088E18093C10086E0809377
:107E2000C20080E18093C4008EE0C9D0259A86E02C
:107E300020E33CEF91E0309385002093840096BBD3
:107E4000B09BFECF1D9AA8958150A9F7CC24DD24C4
:107E500088248394B5E0AB2EA1E19A2EF3E0BF2EE7
:107E6000A2D0813461F49FD0082FAFD0023811F036
:107E7000013811F484E001C083E08DD089C08234E0
:107E800011F484E103C0853419F485E0A6D080C0E4
:107E9000853579F488D0E82EFF2485D0082F10E0AE
:107EA000102F00270E291F29000F111F8ED06801E7
:107EB0006FC0863521F484E090D080E0DECF843638
:107EC00009F040C070D06FD0082F6DD080E0C81688
:107ED00080E7D80618F4F601B7BEE895C0E0D1E017
:107EE00062D089930C17E1F7F0E0CF16F0E7DF06D8
:107EF00018F0F601B7BEE89568D007B600FCFDCFD4
:107F0000A601A0E0B1E02C9130E011968C91119780
:107F100090E0982F8827822B932B1296FA010C0160
:107F200087BEE89511244E5F5F4FF1E0A038BF0790
:107F300051F7F601A7BEE89507B600FCFDCF97BE46
:107F4000E89526C08437B1F42ED02DD0F82E2BD052
:107F50003CD0F601EF2C8F010F5F1F4F84911BD097
:107F6000EA94F801C1F70894C11CD11CFA94CF0C13
:107F7000D11C0EC0853739F428D08EE10CD085E9AC
:107F80000AD08FE07ACF813511F488E018D01DD067
:107F900080E101D065CF982F8091C00085FFFCCF94
:107FA0009093C60008958091C00087FFFCCF809118
:107FB000C00084FD01C0A8958091C6000895E0E648
:107FC000F0E098E1908380830895EDDF803219F02E
:107FD00088E0F5DFFFCF84E1DECF1F93182FE3DFCA
:107FE0001150E9F7F2DF1F91089580E0E8DFEE27F6
:047FF000FF270994CA
:027FFE00040479
:0400000300007E007B
:00000001FF
